:020000040000FA
:0400000070EF11F09C
:10060000003F065B4F666D7D077F6F777C395E79B3
:1006100071554C445253584142597342656D20768E
:10062000696E646F20616F2053450056616C6F7274
:10063000206120706167617200506167616E646F54
:100640002E2E2E00486F72613A2000496E3A20200B
:0D065000004F75743A200052243A2000003B
:10065E00C00EF4EC12F0510E0F6E060E106E99ECE9
:10066E000FF0000E0F6E020E0E6E15EC10F05F0EF8
:10067E000E14216E226A9EEC10F021C02BF022C0C7
:10068E002CF0000E166E0A0E156E2BC013F02CC039
:10069E0014F096EC0CF013C025F014C026F0000EEA
:1006AE00286E0A0E276E52EC0DF02550320FE5EC37
:1006BE0012F0000E0F6E020E0E6E15EC10F05F0EA5
:1006CE000E14216E226A9EEC10F021C025F022C07D
:1006DE0026F0000E286E0A0E276E52EC0DF02550F5
:1006EE00300FE5EC12F03A0EE5EC12F0000E0F6E44
:1006FE00010E0E6E15EC10F07F0E0E14216E226A96
:10070E009EEC10F021C02BF022C02CF0000E166EC5
:10071E000A0E156E2BC013F02CC014F096EC0CF0D4
:10072E0013C025F014C026F0000E286E0A0E276E98
:10073E0052EC0DF02550300FE5EC12F0000E0F6E5E
:10074E00010E0E6E15EC10F07F0E0E14216E226A45
:10075E009EEC10F021C025F022C026F0000E286E6F
:10076E000A0E276E52EC0DF02550300FE5EC12F00C
:10077E003A0EE5EC12F0000E0F6E000E0E6E15EC3A
:10078E0010F07F0E0E14216E226A9EEC10F021C026
:10079E002BF022C02CF0000E166E0A0E156E2BC01A
:1007AE0013F02CC014F096EC0CF013C025F014C00E
:1007BE0026F0000E286E0A0E276E52EC0DF0255014
:1007CE00300FE5EC12F0000E0F6E000E0E6E15ECF3
:1007DE0010F07F0E0E14216E226A9EEC10F021C0D6
:1007EE0025F022C026F0000E286E0A0E276E52EC5F
:1007FE000DF02550300FE5EC12F0780E88EC0EF06F
:10080E00010EF4EC12F0800EF4EC12F02B0E0F6EC3
:10081E00060E106E99EC0FF0C00EF4EC12F0570E9F
:10082E000F6E060E106E99EC0FF031C02DF032C027
:10083E002EF0A00E056E860E066E010E076E000ED1
:10084E00086E2DC001F02EC002F0036A046A9EEC01
:10085E000AF001C00FF002C010F003C011F004C086
:10086E0012F00A0E136E000E146E000E156E000EB0
:10087E00166E20EC0CF00F50300FE5EC12F0270E38
:10088E00046E100E036E2DC001F02EC002F0E6ECC9
:10089E000DF001C008F002C009F0000E0B6E0A0E3A
:1008AE000A6E56EC0EF00850300FE5EC12F02E0EDC
:1008BE00E5EC12F0030E046EE80E036E2DC001F08F
:1008CE002EC002F0E6EC0DF001C008F002C009F0F7
:1008DE00000E0B6E0A0E0A6E56EC0EF00850300F1C
:1008EE00E5EC12F0000E046E640E036E2DC001F0E6
:1008FE002EC002F0E6EC0DF001C008F002C009F0C7
:10090E00000E0B6E0A0E0A6E56EC0EF00850300FEB
:10091E00E5EC12F0120002BEA0EF04F0025007E167
:10092E00080E015CD8B09EEF04F0A0EF04F0CAEF01
:10093E0004F003500410D8B4A7EF04F0A9EF04F0AC
:10094E00B9EF04F001C005F0010E066E052AB2EFF4
:10095E0004F0D8900636052EB0EF04F00650921231
:10096E00B8EF05F001C005F0010E066E052AC2EFC4
:10097E0004F0D8900636052EC0EF04F00650FF0A9C
:10098E009216B8EF05F002BED8EF04F0025007E160
:10099E00100E015CD8B0D6EF04F0D8EF04F006EFDD
:1009AE0005F003500410D8B4DFEF04F0E1EF04F0CB
:1009BE00F3EF04F001C005F0F80E0526010E066EE9
:1009CE00052AECEF04F0D8900636052EEAEF04F077
:1009DE0006509312B8EF05F001C005F0F80E05268B
:1009EE00010E066E052AFEEF04F0D8900636052E8F
:1009FE00FCEF04F00650FF0A9316B8EF05F002BEA6
:100A0E0014EF05F0025007E1180E015CD8B012EF9A
:100A1E0005F014EF05F042EF05F003500410D8B4C2
:100A2E001BEF05F01DEF05F02FEF05F001C005F0EF
:100A3E00F00E0526010E066E052A28EF05F0D89059
:100A4E000636052E26EF05F006509412B8EF05F087
:100A5E0001C005F0F00E0526010E066E052A3AEFCE
:100A6E0005F0D8900636052E38EF05F00650FF0A31
:100A7E009416B8EF05F002BE50EF05F0025007E1F4
:100A8E00200E015CD8B04EEF05F050EF05F07EEF72
:100A9E0005F003500410D8B457EF05F059EF05F0E8
:100AAE006BEF05F001C005F0E80E0526010E066E8F
:100ABE00052A64EF05F0D8900636052E62EF05F094
:100ACE0006509512B8EF05F001C005F0E80E0526A8
:100ADE00010E066E052A76EF05F0D8900636052E25
:100AEE0074EF05F00650FF0A9516B8EF05F002BE3A
:100AFE008CEF05F0025007E1280E015CD8B08AEFAA
:100B0E0005F08CEF05F0B8EF05F003500410D8B4E3
:100B1E0093EF05F095EF05F0A7EF05F001C005F096
:100B2E00E00E0526010E066E052AA0EF05F0D89000
:100B3E000636052E9EEF05F006509612B8EF05F01C
:100B4E0001C005F0E00E0526010E066E052AB2EF75
:100B5E0005F0D8900636052EB0EF05F00650FF0AC8
:100B6E009616120002BEC7EF05F0025007E1080EFE
:100B7E00015CD8B0C5EF05F0C7EF05F0F1EF05F059
:100B8E0003500410D8B4CEEF05F0D0EF05F0E0EF2F
:100B9E0005F001C005F0010E066E052AD9EF05F02D
:100BAE00D8900636052ED7EF05F006508012DFEFEF
:100BBE0006F001C005F0010E066E052AE9EF05F0FC
:100BCE00D8900636052EE7EF05F00650FF0A801680
:100BDE00DFEF06F002BEFFEF05F0025007E1100E48
:100BEE00015CD8B0FDEF05F0FFEF05F02DEF06F03C
:100BFE00F80E0126FF0E022203500410D8B40AEF9D
:100C0E0006F00CEF06F01CEF06F001C005F0010E29
:100C1E00066E052A15EF06F0D8900636052E13EF50
:100C2E0006F006508112DFEF06F001C005F0010E4E
:100C3E00066E052A25EF06F0D8900636052E23EF10
:100C4E0006F00650FF0A8116DFEF06F002BE3BEFFC
:100C5E0006F0025007E1180E015CD8B039EF06F02D
:100C6E003BEF06F069EF06F0F00E0126FF0E0222B2
:100C7E0003500410D8B446EF06F048EF06F058EFD4
:100C8E0006F001C005F0010E066E052A51EF06F0C2
:100C9E00D8900636052E4FEF06F006508212DFEF83
:100CAE0006F001C005F0010E066E052A61EF06F092
:100CBE00D8900636052E5FEF06F00650FF0A821614
:100CCE00DFEF06F002BE77EF06F0025007E1200ECE
:100CDE00015CD8B075EF06F077EF06F0A5EF06F0E1
:100CEE00E80E0126FF0E022203500410D8B482EF44
:100CFE0006F084EF06F094EF06F001C005F0010E49
:100D0E00066E052A8DEF06F0D8900636052E8BEF6F
:100D1E0006F006508312DFEF06F001C005F0010E5B
:100D2E00066E052A9DEF06F0D8900636052E9BEF2F
:100D3E0006F00650FF0A8316DFEF06F002BEB3EF91
:100D4E0006F0025007E1280E015CD8B0B1EF06F0B4
:100D5E00B3EF06F0DFEF06F0E00E0126FF0E0222E3
:100D6E0003500410D8B4BEEF06F0C0EF06F0D0EF7B
:100D7E0006F001C005F0010E066E052AC9EF06F059
:100D8E00D8900636052EC7EF06F006508412DFEF18
:100D9E0006F001C005F0010E066E052AD9EF06F029
:100DAE00D8900636052ED7EF06F00650FF0A8416A9
:100DBE0012001B0E0F6E060E106E99EC0FF0C00E89
:100DCE00F4EC12F0440E0F6E060E106E99EC0FF04E
:100DDE00000E0F6E020E0E6E15EC10F05F0E0E145E
:100DEE00216E226A9EEC10F021C02BF022C02CF056
:100DFE00000E166E0A0E156E2BC013F02CC014F0DA
:100E0E0096EC0CF013C025F014C026F0000E286EE0
:100E1E000A0E276E52EC0DF02550320FE5EC12F053
:100E2E00000E0F6E020E0E6E15EC10F05F0E0E140D
:100E3E00216E226A9EEC10F021C025F022C026F011
:100E4E00000E286E0A0E276E52EC0DF02550300F54
:100E5E00E5EC12F03A0EE5EC12F0000E0F6E010EFC
:100E6E000E6E15EC10F07F0E0E14216E226A9EECA3
:100E7E0010F021C02BF022C02CF0000E166E0A0EC0
:100E8E00156E2BC013F02CC014F096EC0CF013C0A2
:100E9E0025F014C026F0000E286E0A0E276E52ECB6
:100EAE000DF02550300FE5EC12F0000E0F6E010E16
:100EBE000E6E15EC10F07F0E0E14216E226A9EEC53
:100ECE0010F021C025F022C026F0000E286E0A0E6A
:100EDE00276E52EC0DF02550300FE5EC12F03A0E65
:100EEE00E5EC12F0000E0F6E000E0E6E15EC10F00B
:100EFE007F0E0E14216E226A9EEC10F021C02BF094
:100F0E0022C02CF0000E166E0A0E156E2BC013F0BA
:100F1E002CC014F096EC0CF013C025F014C026F083
:100F2E00000E286E0A0E276E52EC0DF02550300F73
:100F3E00E5EC12F0000E0F6E000E0E6E15EC10F0BA
:100F4E007F0E0E14216E226A9EEC10F021C025F049
:100F5E0022C026F0000E286E0A0E276E52EC0DF0FF
:100F6E002550300FE5EC12F0200EE5EC12F0200EBD
:100F7E00E5EC12F01200010EF4EC12F04B0E0F6EB7
:100F8E00060E106E99EC0FF0000E0F6E020E0E6E26
:100F9E0015EC10F05F0E0E14216E226A9EEC10F00E
:100FAE0021C02BF022C02CF0000E166E0A0E156E0C
:100FBE002BC013F02CC014F096EC0CF013C025F0DF
:100FCE0014C026F0000E286E0A0E276E52EC0DF09D
:100FDE002550320FE5EC12F0000E0F6E020E0E6E63
:100FEE0015EC10F05F0E0E14216E226A9EEC10F0BE
:100FFE0021C025F022C026F0000E286E0A0E276EA4
:10100E0052EC0DF02550300FE5EC12F03A0EE5ECF7
:10101E0012F0000E0F6E010E0E6E15EC10F07F0E1C
:10102E000E14216E226A9EEC10F021C02BF022C00D
:10103E002CF0000E166E0A0E156E2BC013F02CC07F
:10104E0014F096EC0CF013C025F014C026F0000E30
:10105E00286E0A0E276E52EC0DF02550300FE5EC7F
:10106E0012F0000E0F6E010E0E6E15EC10F07F0ECC
:10107E000E14216E226A9EEC10F021C025F022C0C3
:10108E0026F0000E286E0A0E276E52EC0DF025503B
:10109E00300FE5EC12F03A0EE5EC12F0000E0F6E8A
:1010AE00000E0E6E15EC10F07F0E0E14216E226ADD
:1010BE009EEC10F021C02BF022C02CF0000E166E0C
:1010CE000A0E156E2BC013F02CC014F096EC0CF01B
:1010DE0013C025F014C026F0000E286E0A0E276EDF
:1010EE0052EC0DF02550300FE5EC12F0000E0F6EA5
:1010FE00000E0E6E15EC10F07F0E0E14216E226A8D
:10110E009EEC10F021C025F022C026F0000E286EB5
:10111E000A0E276E52EC0DF02550300FE5EC12F052
:10112E001200000E026E180E016E000E046E000EFE
:10113E00036EB9EC05F0000E026E190E016E000E74
:10114E00046E000E036EB9EC05F0000E026E1A0E60
:10115E00016E000E046E000E036EB9EC05F0000E6B
:10116E00026E1B0E016E000E046E000E036EB9ECC5
:10117E0005F0000E086E000E076EEEEC0FF030EF6D
:10118E0009F0010E3C24F66EF76A060EF7220800EF
:10119E00F550076E086AEEEC0FF0000E026E180E98
:1011AE00016E000E046E010E036EB9EC05F0010E19
:1011BE003D6E4DEF09F0010E3B24F66EF76A060EFA
:1011CE00F7220800F550076E086AEEEC0FF0000EDD
:1011DE00026E190E016E000E046E010E036EB9EC56
:1011EE0005F0020E3D6E4DEF09F0010E3A24F66E3B
:1011FE00F76A060EF7220800F550076E086AEEEC45
:10120E000FF0000E026E1A0E016E000E046E010E2D
:10121E00036EB9EC05F0030E3D6E4DEF09F0010EB5
:10122E003924F66EF76A060EF7220800F550076E9F
:10123E00086AEEEC0FF0000E026E1B0E016E000E31
:10124E00046E010E036EB9EC05F0000E3D6E4DEF0F
:10125E0009F03D500A6E0B6A0B50000AD8B43AEFF3
:10126E0009F02CEF09F00A50000AD8B4C8EF08F0C4
:10127E00010AD8B4E2EF08F0030AD8B4FCEF08F084
:10128E00010AD8B416EF09F02CEF09F0120002BED5
:10129E005CEF09F0025007E1080E015CD8B05AEF7E
:1012AE0009F05CEF09F070EF09F001C003F0010ED8
:1012BE00046E032A65EF09F0D8900436032E63EF0F
:1012CE0009F004508014056E0550016E026A02EF9B
:1012DE000AF002BE7EEF09F0025007E1100E015C2B
:1012EE00D8B07CEF09F07EEF09F094EF09F001C061
:1012FE0003F0F80E0326010E046E032A89EF09F09F
:10130E00D8900436032E87EF09F004508114056E31
:10131E000550016E026A02EF0AF002BEA2EF09F05A
:10132E00025007E1180E015CD8B0A0EF09F0A2EF51
:10133E0009F0B8EF09F001C003F0F00E0326010E1C
:10134E00046E032AADEF09F0D8900436032EABEFEE
:10135E0009F004508214056E0550016E026A02EF08
:10136E000AF002BEC6EF09F0025007E1200E015C42
:10137E00D8B0C4EF09F0C6EF09F0DCEF09F001C0F8
:10138E0003F0E80E0326010E046E032AD1EF09F0D6
:10139E00D8900436032ECFEF09F004508314056E57
:1013AE000550016E026A02EF0AF002BEEAEF09F082
:1013BE00025007E1280E015CD8B0E8EF09F0EAEF21
:1013CE0009F000EF0AF001C003F0E00E0326010E53
:1013DE00046E032AF5EF09F0D8900436032EF3EFCE
:1013EE0009F004508414056E0550016E026A02EF76
:1013FE000AF0016802681200000E366E000E356E9D
:10140E00000E0E6E000E0D6E0EBE17EF0AF00E5091
:10141E0009E1050E0D5CD8A017EF0AF019EF0AF0DE
:10142E001BEF0AF07CEF0AF00DC00AF0030E0A263D
:10143E00010E0B6E000E0C6E0A2A29EF0AF0D890E0
:10144E000B360C360A2E26EF0AF00BC007F00CC036
:10145E0008F0EEEC0FF0000E026E0A0E016E4EEC6E
:10146E0009F001500210D8B43FEF0AF041EF0AF034
:10147E0054EF0AF00DC00AF0010E0B6E000E0C6E4A
:10148E000A2A4DEF0AF0D8900B360C360A2E4AEF88
:10149E000AF00B5035120C503612000E026E090E69
:1014AE00016E4EEC09F001500210D8B461EF0AF053
:1014BE0063EF0AF078EF0AF00DC00AF0050E0A2667
:1014CE00010E0B6E000E0C6E0A2A71EF0AF0D89008
:1014DE000B360C360A2E6EEF0AF00B5035120C50EE
:1014EE0036120D4A0E2A0BEF0AF03550331807E16B
:1014FE0036503418D8A486EF0AF088EF0AF08BEF36
:10150E000AF03E0691EF0AF0010E3E6E35C033F042
:10151E0036C034F03E50D8A497EF0AF099EF0AF097
:10152E009DEF0AF033C037F034C038F01200000ED1
:10153E000A6E08BEA7EF0AF0A5EF0AF0B1EF0AF0A7
:10154E00081E071E061E056C000E06220722082224
:10155E00010E0A6E04BEB8EF0AF0B6EF0AF0C2EF43
:10156E000AF0041E031E021E016C000E022203224C
:10157E000422010E0A1A000E0B6E000E0C6E000EE7
:10158E000D6E000E0E6E0550061007100810D8B422
:10159E00D3EF0AF0D5EF0AF00BEF0BF0010E096E48
:1015AE00DFEF0AF0D8900536063607360836092AD8
:1015BE0008AEE4EF0AF0E6EF0AF0D9EF0AF0D890A1
:1015CE000B360C360D360E360550015C06500258A1
:1015DE000750035808500458D8A0F8EF0AF0FAEF55
:1015EE000AF003EF0BF00550015E0650025A075049
:1015FE00035A0850045A0B80D8900832073206322C
:10160E000532092EE6EF0AF00A50D8B411EF0BF0AE
:10161E0013EF0BF01BEF0BF00E1E0D1E0C1E0B6CC2
:10162E00000E0C220D220E220BC001F00CC002F097
:10163E000DC003F00EC004F01200000E2B6E600EF3
:10164E00056EEA0E066E000E076E000E086E31C0B5
:10165E0001F032C002F0000E02BEFF0E036E046EE9
:10166E009EEC0AF001C00FF002C010F003C011F0A2
:10167E0004C012F00A0E136E000E146E000E156EDC
:10168E00000E166E20EC0CF00F5016EC0FF0010E43
:10169E002B6E170E166E700E156E31C013F032C013
:1016AE0014F096EC0CF013C025F014C026F0000ECA
:1016BE00286E0A0E276E52EC0DF0255016EC0FF028
:1016CE00020E2B6E030E166EE80E156E31C013F061
:1016DE0032C014F096EC0CF013C025F014C026F0B6
:1016EE00000E286E060E276E52EC0DF0255016ECED
:1016FE000FF0030E2B6E000E166E640E156E31C0BB
:10170E0013F032C014F096EC0CF013C025F014C098
:10171E0026F0000E286E0A0E276E52EC0DF02550A4
:10172E0016EC0FF098EC08F0230E026E280E016EE8
:10173E00D4EC12F01BEC13F0314A322A120010ECEA
:10174E0013F044044510D8A4AFEF0BF0B1EF0BF03B
:10175E00C8EF0BF0E0EC06F0FCEC10F00F501010A0
:10176E00D8B4BCEF0BF0BEEF0BF0A8EF0BF0C2EC51
:10177E0007F031EC12F0000E456E000E446EA8EF2D
:10178E000BF044504510D8A4CFEF0BF0D1EF0BF077
:10179E00A8EF0BF02F503010D8A4D8EF0BF0DAEFE3
:1017AE000BF0F3EF0BF024EC0BF0DEEC10F00F501F
:1017BE001010D8B4E5EF0BF0E7EF0BF0A8EF0BF03D
:1017CE002FEC03F031EC12F0D5EC11F0000E306E70
:1017DE00010E2F6EA8EF0BF01AEC11F00F50101037
:1017EE00D8B4FCEF0BF0FEEF0BF0A8EF0BF0010EF0
:1017FE00F4EC12F0390E0F6E060E106E99EC0FF01F
:10180E0023EC13F0000E456E010E446E000E306E8A
:10181E00000E2F6E000E326E000E316E000E2E6E0A
:10182E00000E2D6E010EF4EC12F0A8EF0BF000EF8F
:10183E0000F0000E186E12BE29EF0CF027EF0CF020
:10184E0033EF0CF0121E111E101E0F6C000E102224
:10185E0011221222010E186E16BE3AEF0CF038EF5E
:10186E000CF042EF0CF0161E151E141E136C000E1B
:10187E001422152216221350141015101610D8B457
:10188E004BEF0CF04DEF0CF07DEF0CF0010E176EE0
:10189E0057EF0CF0D8901336143615361636172A25
:1018AE0016AE5CEF0CF05EEF0CF051EF0CF0135037
:1018BE000F5C145010581550115816501258D8A0CD
:1018CE006BEF0CF06DEF0CF075EF0CF013500F5E2C
:1018DE001450105A1550115A1650125AD8901632DA
:1018EE00153214321332172E5EEF0CF01850D8B496
:1018FE0083EF0CF085EF0CF08DEF0CF0121E111E25
:10190E00101E0F6C000E1022112212220FC00FF0AB
:10191E0010C010F011C011F012C012F01200000E23
:10192E00186E16BE9FEF0CF09DEF0CF0A5EF0CF0AD
:10193E00156C161ED8B0162A010E186E14BEACEF1A
:10194E000CF0AAEF0CF0B2EF0CF0136C141ED8B022
:10195E00142A010E181A000E1A6E000E196E15506A
:10196E001610D8B4BDEF0CF0BFEF0CF0E7EF0CF093
:10197E00010E176EC7EF0CF0D89015361636172AD3
:10198E0016AECCEF0CF0CEEF0CF0C3EF0CF0D890FF
:10199E0019361A361550135C16501458D8A0DAEFB3
:1019AE000CF0DCEF0CF0E1EF0CF01550135E16505E
:1019BE00145A1980D89016321532172ECEEF0CF01D
:1019CE001850D8B4EDEF0CF0EFEF0CF0F3EF0CF085
:1019DE00196C1A1ED8B01A2A19C013F01AC014F0B6
:1019EE001200000E026E1C0E016E000E046E000E32
:1019FE00036E92EC04F0000E026E1D0E016E000ED0
:101A0E00046E000E036E92EC04F0BFEC10F0000EAC
:101A1E00026E0F0E016EBDEC11F0000E0B6E000E7D
:101A2E000A6E030EAEEC12F0000E026E050E016E83
:101A3E00BDEC11F0000E0B6E000E0A6E030EAEEC36
:101A4E0012F0000E026EA00E016E31EC13F0000EBD
:101A5E000B6E000E0A6E030EAEEC12F0000E026E4E
:101A6E00A00E016E31EC13F0000E0B6E000E0A6E1E
:101A7E00020EAEEC12F0000E026E0A0E016EBDECFE
:101A8E0011F0280EF4EC12F00C0EF4EC12F0010E24
:101A9E00F4EC12F01200000E2A6E26BE5BEF0DF073
:101AAE0059EF0DF061EF0DF0256C261ED8B0262AE9
:101ABE00010E2A6E28BE68EF0DF066EF0DF06CEF8A
:101ACE000DF0276C281ED8B0282A27502810D8B41D
:101ADE0073EF0DF075EF0DF099EF0DF0010E296E0D
:101AEE007DEF0DF0D89027362836292A28AE82EFC2
:101AFE000DF084EF0DF079EF0DF02750255C285096
:101B0E002658D8A08DEF0DF08FEF0DF093EF0DF05E
:101B1E002750255E2850265AD89028322732292E53
:101B2E0084EF0DF02A50D8B49FEF0DF0A1EF0DF019
:101B3E00A5EF0DF0256C261ED8B0262A25C025F05F
:101B4E0026C026F01200000E056E000E046E04C0B4
:101B5E0001F0010E026E000E036E012ABAEF0DF0B7
:101B6E00D89002360336012EB7EF0DF0375002161D
:101B7E003850031602500310D8B4C8EF0DF0CAEF58
:101B8E000DF0D4EF0DF0110E0424F66E060E0520A6
:101B9E00F76E0800F550E5EF0DF0044A052A05BE74
:101BAE00E2EF0DF0055009E10A0E045CD8A0E2EF59
:101BBE000DF0E4EF0DF0AEEF0DF0000E1200000E82
:101BCE00066E000E056E03500410D8B4F1EF0DF042
:101BDE00F3EF0DF01BEF0EF0010E076EFBEF0DF0A5
:101BEE00D89003360436072A04AE00EF0EF002EF4B
:101BFE000EF0F7EF0DF0D890053606360350015C67
:101C0E0004500258D8A00EEF0EF010EF0EF015EFA4
:101C1E000EF00350015E0450025A0580D890043233
:101C2E000332072E02EF0EF005C001F006C002F0DF
:101C3E001200236E010ECB241B6E1C6A000E1C229A
:101C4E0023C01DF01E6AC1EC12F01BC024F01CC094
:101C5E0025F024C001F025C002F0000E046E190E0E
:101C6E00036EE6EC0DF001C024F002C025F0FF0E6D
:101C7E002416030E251624C021F025C022F0D8907C
:101C8E0022322132D890223221322150BB6E24C012
:101C9E0021F0030E21162138F00BBA1212000A5051
:101CAE000B10D8B45DEF0EF05FEF0EF083EF0EF079
:101CBE00010E0C6E67EF0EF0D8900A360B360C2A1A
:101CCE000BAE6CEF0EF06EEF0EF063EF0EF00A50EF
:101CDE00085C0B500958D8A077EF0EF079EF0EF094
:101CEE007DEF0EF00A50085E0B50095AD8900B3259
:101CFE000A320C2E6EEF0EF008C008F009C009F083
:101D0E001200016E000E026EAFEF0EF0000E036EAB
:101D1E00000E046E000E056E052A020E05649AEF83
:101D2E000EF09CEF0EF093EF0EF0042A280E0464D2
:101D3E00A3EF0EF0A5EF0EF091EF0EF0032A630E57
:101D4E000364ACEF0EF0AEEF0EF08FEF0EF0022A42
:101D5E000150025CD8A0B6EF0EF0B8EF0EF08DEF8A
:101D6E000EF012000A6E0A50D8B4C0EF0EF0C2EF99
:101D7E000EF0C4EF0EF038EC10F0000E0B6E09BE34
:101D8E00CBEF0EF0CEEF0EF0010ECFEF0EF0000EF9
:101D9E0042EC0FF0D89009360B2A070E0B64DAEFDF
:101DAE000EF0DCEF0EF0C6EF0EF0A4EC11F00850C2
:101DBE00D8B4E4EF0EF0E6EF0EF0E8EF0EF0ECEC38
:101DCE0011F012000D6E0DC00CF00C3A0F0E0C1629
:101DDE000C50076E086AEEEC0FF0000E026E1D0E30
:101DEE00016E0AC003F00BC004F0B9EC05F07DECF7
:101DFE0010F00DC00CF00F0E0C160C50076E086A8A
:101E0E00EEEC0FF0000E026E1D0E016E0AC003F016
:101E1E000BC004F0B9EC05F07DEC10F012002C6E46
:101E2E002B50D8A41DEF0FF01FEF0FF021EF0FF086
:101E3E002CC03CF02B04D8A427EF0FF029EF0FF0A5
:101E4E002BEF0FF02CC03BF0020E2B18D8A432EF64
:101E5E000FF034EF0FF036EF0FF02CC03AF0030E08
:101E6E002B18D8A43DEF0FF03FEF0FF041EF0FF01E
:101E7E002CC039F01200076E0750D8B449EF0FF09E
:101E8E004BEF0FF04FEF0FF038EC11F051EF0FF06A
:101E9E0071EC12F032EC13F054EC11F00009D8B4DE
:101EAE005BEF0FF05DEF0FF053EF0FF00750D8B46C
:101EBE0063EF0FF065EF0FF067EF0FF038EC11F0F6
:101ECE0032EC13F086EC12F032EC13F01200000E2E
:101EDE00026E180E016E000E046E000E036E92EC72
:101EEE0004F0000E026E190E016E000E046E000E4E
:101EFE00036E92EC04F0000E026E1A0E016E000ECE
:101F0E00046E000E036E92EC04F0000E026E1B0EB9
:101F1E00016E000E046E000E036E92EC04F0BFEC28
:101F2E0010F01200000E146E000E136EAFEF0FF0D5
:101F3E0013500F24116E14501020126E11C0F6FFA4
:101F4E0012C0F7FF0800F550E5EC12F0134A142A00
:101F5E0013500F24116E14501020126E11C0F6FF84
:101F6E0012C0F7FF0800F5500009D8A4C1EF0FF01A
:101F7E00C3EF0FF09FEF0FF012000A6E000E0D6E02
:101F8E00000E0C6E000E0B6EA4EC11F0096E0D50CF
:101F9E000D2409100D6E0B4A0C2A0C5009E1080E87
:101FAE000B5CD8A0DDEF0FF0DFEF0FF0CBEF0FF0F3
:101FBE000A5042EC0FF00850D8B4E8EF0FF0EAEFF9
:101FCE000FF0ECEF0FF0ECEC11F00D501200000ED4
:101FDE00026E080E016E000E046E000E036EB9EC5A
:101FEE0005F0000E096E000E026E1E0E016E800EC2
:101FFE000714036E046AB9EC05F05CEC12F0D8908D
:10200E0007360836092A070E096410EF10F012EF92
:10201E0010F0FAEF0FF047EC12F01200000E086EFF
:10202E00D00E096E010EB9EC0EF0000E086E0EC049
:10203E0009F0000EB9EC0EF0000E086ED10E096E0E
:10204E00010EB9EC0EF0010E086E010EC4EC0FF08D
:10205E00106E1050116E126A11C00EF012C00FF0F9
:10206E0012003F50D8B43EEF10F040EF10F050EF9A
:10207E0010F038EC11F032EC13F054EC11F00009C2
:10208E00D8B44CEF10F04EEF10F044EF10F032ECED
:10209E0013F038EC11F071EC12F032EC13F086EC18
:1020AE0012F0010E3F6E1200000E016E000E026E57
:1020BE00022A0228D8A466EF10F068EF10F05FEF46
:1020CE0010F0000E026E022A0228D8A471EF10F052
:1020DE0073EF10F06AEF10F0012A0128D8A47AEFFE
:1020EE0010F07CEF10F05DEF10F01200000E026E9B
:1020FE001C0E016E000E046E010E036EB9EC05F09F
:10210E00000E026E050E016E31EC13F0000E026E23
:10211E001C0E016E000E046E000E036EB9EC05F07F
:10212E00000E026E050E016E31EC13F012000F0E52
:10213E002114236E000E2214246E000E166E100E45
:10214E00156E21C013F022C014F096EC0CF013C0E3
:10215E001BF014C01CF0000E1E6E0A0E1D6EC1EC9C
:10216E0012F023501B24216E24501C20226E1200CC
:10217E00000E026E1F0E016E000E046E000E036E38
:10218E0092EC04F0000E026E080E016E000E046E4C
:10219E00000E036E92EC04F0000E026E1E0E016E27
:1021AE00000E046E000E036E92EC04F0120003ECAF
:1021BE000AF0000E116EAAEC0DF00009D8B4EAEF89
:1021CE0010F0ECEF10F0F8EF10F0AAEC0DF0440A5E
:1021DE00D8A4F4EF10F0F6EF10F0F8EF10F0010EB7
:1021EE00116E11C00FF0106A120003EC0AF0000E0F
:1021FE00116EAAEC0DF00009D8B408EF11F00AEF39
:10220E0011F016EF11F0AAEC0DF0550AD8A412EF4A
:10221E0011F014EF11F016EF11F0010E116E11C046
:10222E000FF0106A120003EC0AF0000E116EAAEC09
:10223E000DF00009D8B426EF11F028EF11F034EFAD
:10224E0011F0AAEC0DF0520AD8A430EF11F032EFD3
:10225E0011F034EF11F0010E116E11C00FF0106A73
:10226E001200000E026E0C0E016E000E046E010EB8
:10227E00036E92EC04F0000E026E0C0E016E4EEC2C
:10228E0009F001500210D8A44FEF11F052EF11F0E7
:10229E00010E53EF11F0000E1200000E026E0B0E27
:1022AE00016E000E046E010E036E92EC04F0000E31
:1022BE00026E0B0E016E4EEC09F001500210D8A406
:1022CE006BEF11F06EEF11F0010E6FEF11F0000ECB
:1022DE0012005C0EF66E260EF76E000EF86E00EE15
:1022EE0040F010EE06F00900F5CFEEFFE550E1509C
:1022FE00FAE100EE2DF0130EEE6AE806FDE1000E97
:10230E00F86E0001A6EF0BF0BFEC10F0000E026E9F
:10231E000A0E016E000E046E010E036E92EC04F0B6
:10232E00000E026E090E016E000E046E010E036E9B
:10233E0092EC04F00C0EC16E120038EC11F032EC7F
:10234E0013F054EC11F00009D8B4B0EF11F0B2EF65
:10235E0011F0A8EF11F038EC11F0076E32EC13F01B
:10236E0086EC12F032EC13F007501200000E056EE0
:10237E00000E046EC5EF11F0044A052A0150045CEC
:10238E000550800A036E0250800A0358D8A0D2EF7F
:10239E0011F0D4EF11F0C3EF11F01200000E2B6EFE
:1023AE00000E16EC0FF0010E2B6E000E16EC0FF059
:1023BE00020E2B6E000E16EC0FF0030E2B6E000E9F
:1023CE0016EC0FF098EC08F0120071EC12F032ECF3
:1023DE0013F054EC11F00009D8B4F8EF11F0FAEF45
:1023EE0011F0F0EF11F032EC13F038EC11F032EC9A
:1023FE0013F0000E3F6E12005BEC10F0800E046EB8
:10240E00000E036E5BEC10F004C083FFD890043016
:10241E00046E032A070E036417EF12F019EF12F081
:10242E0009EF12F012005BEC10F0810E046E000E3C
:10243E00036E5BEC10F004C083FF04500424046EA2
:10244E00032A070E03642EEF12F030EF12F020EF86
:10245E0012F01200640E20EC0EF00F0E88EC0EF04F
:10246E00000E20EC0EF00F0E88EC0EF0640E20EC39
:10247E000EF00F0E88EC0EF0000E20EC0EF0120097
:10248E00000E026E1F0E016E000E046E010E036E24
:10249E00B9EC05F0000E026E1F0E016E000E046EFA
:1024AE00000E036EB9EC05F01200000E026E080E5F
:1024BE00016E000E046E010E036EB9EC05F0000EF7
:1024CE00026E080E016E000E046E000E036EB9EC65
:1024DE0005F01200000E026E0C0E016E000E046E60
:1024EE00000E036E92EC04F0000E026E0C0E016EE6
:1024FE00000E046E000E036EB9EC05F01200000E15
:10250E00026E0B0E016E000E046E000E036E92EC48
:10251E0004F0000E026E0B0E016E000E046E000E25
:10252E00036EB9EC05F01200480E016EE80E026E55
:10253E00010E036E000E046E0FC005F010C006F003
:10254E00076A086A9EEC0AF00104CB6E12000C6E4C
:10255E000CC007F0086AEEEC0FF0000E026E1D0EB6
:10256E00016E0AC003F00BC004F0B9EC05F07DEC6F
:10257E0010F012001B501D02F3CF1FF0F4CF20F00D
:10258E001B501E02F35020261C501D02F350202615
:10259E001FC01BF020C01CF01200D8900134036E37
:1025AE000234046E031E041E320E035E000E045A25
:1025BE000450D76E03C0D6FFF29412000E6E000EBA
:1025CE000B6E010E0A6E0E50E9EC0EF0000E026E4E
:1025DE00500E016E31EC13F012000E6E000E0B6EEB
:1025EE00000E0A6E0E50E9EC0EF0000E026E020E98
:1025FE00016EBDEC11F012009492030ECA12CA8441
:10260E000C0EBA6E000E106E640E0F6E9BEC12F076
:10261E001200F8EC0CF08BEC11F02AEC13F06EECCF
:10262E000FF003EC13F01200F2A420EF13F022EFE0
:10263E0013F01BEF13F012001AEC12F05BEC10F01B
:10264E0003EC12F01200080ED56ED58E12000200A9
:08265E000A0001001200120045
:020000040020DA
:08000000FFFFFFFFFFFFFFFF00
:020000040030CA
:0E000000FF071F1FFF8385FF0FC00FE00F409B
:00000001FF
